:03000000020E23CA
:0C0E2300787FE4F6D8FD758143020E6A6A
:10110C0053636F72653A2000486967682053636FB8
:0F111C0072653A20000000000000000000000093
:10107A001021000000000000000000000000000035
:10108A000000103100000000000000000000000015
:07109A00000000000141010C
:10101400E4F5A0C282C280C2817F38FE121133126D
:1010240010C77F067E001211331210C77F0C7E009A
:101034001211331210C77F017E001211331210C730
:071044007F807E00021133E2
:0410C7007F047E0024
:1010CB00E4FDFCC3ED9FEC9E5015E4FBFA0BBB005B
:0F10DB00010ABA01F8BB7EF50DBD00010C80E4DF
:0110EA0022E3
:100EAF008E168F178B188A19891A7C037DE8120901
:100EBF0043EF243012090FAE16AF177C037DE812F3
:100ECF0009437E007F64CFCDCFCECCCE120943EF46
:100EDF002430AB18AA19A91A900001120921AE16D5
:100EEF00AF177C007D641209437E007F0ACFCDCF00
:100EFF00CECCCE120943EF2430AB18AA19A91A9001
:100F0F000002120921AE16AF177C007D0A120943A9
:0F0F1F00ED2430AB18AA19A91A9000030209217A
:08112B00E54324C0FFE433FE9C
:10113300C280C281D2828FA07F0A7E001210CBC2EE
:02114300822206
:10104B00E5432480FFE433FE1211337F2012106836
:0D105B00E54324C0FFE433FE1211337F2A69
:10106800D280C281D2828FA07F0A7E001210CBC2AA
:021078008222D2
:1010A2008B168A178918AB16AA17A9181208F660A8
:1010B200130518E5187002051714F91208F6FF1245
:0510C200106880E2222D
:0F114500758920758DCC759850D28E75A8902223
:1010EB00E5415408FFE54133333354086FFFE541C5
:1010FB00C3136FF54153410FE54175F00384AFF016
:01110B0022C1
:100CBD00D201E5437002C322E542B40900400302AC
:100CCD000D8A900CD6F8282873020CF1020D010242
:100CDD000D10020D24020D38020D4C020D60020D97
:100CED0074020D8074202543F8E67003020D8AC24C
:100CFD0001020D8A74202543F8E67003020D8AC2A5
:100D0D0001807A74202543F8E6700874302543F885
:100D1D00E6606AC201806674202543F8E6700874A7
:100D2D00302543F8E66056C201805274202543F801
:100D3D00E6700874302543F8E66042C201803E74C7
:100D4D00202543F8E6700874312543F8E6602EC27D
:100D5D0001802A74212543F8E6700874302543F884
:100D6D00E6601AC201801674302543F8E6600EC2A3
:0F0D7D0001800A74302543F8E66002C201A2012A
:010D8C002244
:100BE800E542B409004003020CBC900BF9F8282830
:100BF80073020C14020C1B020C29020C43020C5544
:100C0800020C6E020C87020CA0020CA9E543247F9B
:100C1800020CA4E543247F12105FE5432481020CF3
:100C2800B4E543247F12105F7F20121068E5432447
:100C3800BF12105FE54324C1020CB4E543247F12C0
:100C4800105F7F20121068E54324BF804FE54324DE
:100C58007F12105FE543248112112F7F2012106844
:100C6800E54324BF8036E543247F12105FE5432423
:100C78008112112F7F20121068E54324C0801DE5E2
:100C880043248012105F7F20121068E54324BF12AE
:100C9800105FE54324C18014E54324BF12105F8030
:100CA8000EE54324BF12105FE54324C112112F7FC4
:050CB80020121068226B
:100D8D00E542B409004003020E22900D9EF828287A
:100D9D0073020DB9020DBD020DC8020DDA020DE58B
:100DAD00020DF7020DF7020E10020E147421806071
:100DBD0074212543F876017422805574212543F85A
:100DCD00760174312543F876017432804374212500
:100DDD0043F876017431803874212543F876017417
:100DED00312543F876017422802674212543F87647
:100DFD000174312543F8760174222543F876017488
:100E0D0032800D7431800974312543F876017432C6
:060E1D002543F8760122D6
:100F2E00E5426407701B74212543F8E67013E54310
:100F3E00248012105F12112B7F20121068E4F542EC
:100F4E0022E5426408702C74212543F8E67024745F
:100F5E00222543F8E6701CE543248012105F7F2A99
:100F6E0012106812112B7F201210687F2012106849
:040F7E007542012295
:100FD300E542700F74312543F8E6700712104B7524
:100FE300420722E5426401702774312543F8E67015
:100FF3001F74322543F8E67017E543248012112F3E
:101003007F201210681210567F2A1210687542084A
:0110130022BA
:100B0B00E54214B408004003020BE7900B2475F088
:100B1B0003A4C58325F0C58373020B3C020B5F0254
:100B2B000B76020B93020BA4020BB3020BE7020B27
:100B3B00CB74322543F8E66003020BE7E5432480D0
:100B4B0012112F7F20121068E54324C112112F7F41
:100B5B002A020BDFE543248112105FE54324C11207
:100B6B00112F7F201210687542042274202543F840
:100B7B00E67069E543247F12105F12112B7F201260
:100B8B00106875420115432212112B7F2012106839
:100B9B007F2A1210687542052274312543F8E670DE
:100BAB003B12104B7542062274212543F8E6702C3C
:100BBB00E543248012105F7F2012106875420222D9
:100BCB0074222543F8E67014E543248112105F125A
:0D0BDB00112B7F2012106875420305432284
:03002300020F8247
:100F8200C0E0C0F0C083C082C0D075D000C000C035
:0B0F920002C003C004C005C006C00779
:100F9D00AF99EF249F600C24EF600D04700D120FBC
:0D0FAD002E8008120FD38003120B0BC29888
:100FBA00D007D006D005D004D003D002D000D0D0BC
:090FCA00D082D083D0F0D0E032D7
:10099800E4F508F509780A7C00FD7BFF7A117921D6
:1009A800FE7F051208D0E4F50FF51078117C00FDE4
:1009B8007BFF7A117926FE7F051208D0D20012102B
:1009C80014121145E4F50FF510FFFE74212FF8E419
:1009D800F674312FF8E4F60FBF00010EEF64104EE5
:1009E80070E9E5306007E5406003020A961210EBF3
:1009F8008F427543107E00EF7007E5306003020AEE
:100A080096EF64014E700BE5306003020A96E52FFD
:100A1800707CEF64024E7010E52F7072E530706ED6
:100A2800E53F706AE5407066EF4E700A15437F8FA8
:100A3800FE1211338021E542640170091543154304
:100A48007F8EFE800F154315437F8E7E0012106344
:100A58007FCE7E001210637F2A1210680510E51001
:100A68007018050F801430001FC2AF120BE8D2AF08
:100A780015430510E5107002050F7FE87E0312107C
:100A8800CB120CBD920080DE120D8D0209EAD3E56F
:100A9800109509E50F95084013850F088510097B07
:100AA800007A007911AF09AE08120EAF7F017E00FF
:100AB8001211337B007A00790AAF10AE0F120EAF15
:100AC8007F807E001211337BFF7A11790C1210A2FD
:100AD8007B007A00790A1210A27FC07E00121133BF
:100AE8007BFF7A1179141210A27B007A0079111217
:100AF80010A27FB87E0B1210CB7F017E001211333B
:030B08000209CC13
:100E2F00020998E493A3F8E493A34003F68001F238
:100E3F0008DFF48029E493A3F85407240CC8C333C4
:100E4F00C4540F4420C8834004F456800146F6DF93
:100E5F00E4800B010204081020408090107AE47E99
:100E6F00019360BCA3FF543F30E509541FFEE49388
:100E7F00A360010ECF54C025E060A840B8E493A34F
:100E8F00FAE493A3F8E493A3C8C582C8CAC583CA7A
:100E9F00F0A3C8C582C8CAC583CADFE9DEE780BE32
:0110A100004E
:10080000E709F608DFFA8046E709F208DFFA803EDA
:1008100088828C83E709F0A3DFFA8032E309F608C7
:10082000DFFA8078E309F208DFFA807088828C832F
:10083000E309F0A3DFFA806489828A83E0A3F608E3
:10084000DFFA805889828A83E0A3F208DFFA804CBD
:1008500080D280FA80C680D4806980F28033801094
:1008600080A680EA809A80A880DA80E280CA8033FD
:1008700089828A83ECFAE493A3C8C582C8CCC58375
:10088000CCF0A3C8C582C8CCC583CCDFE9DEE78045
:100890000D89828A83E493A3F608DFF9ECFAA9F0C4
:1008A000EDFB2289828A83ECFAE0A3C8C582C8CC1A
:1008B000C583CCF0A3C8C582C8CCC583CCDFEADE33
:1008C000E880DB89828A83E493A3F208DFF980CC95
:1008D00088F0EF60010E4E60C388F0ED2402B4048E
:1008E0000050B9F582EB2402B4040050AF23234535
:0608F00082239008507302
:1008F600BB010689828A83E0225002E722BBFE0200
:09090600E32289828A83E4932232
:10090F00BB010689828A83F0225002F722BBFE01C7
:02091F00F322C1
:10092100F8BB010DE58229F582E5833AF583E8F00C
:10093100225006E92582C8F622BBFE05E92582C8B8
:02094100F222A0
:10094300BC000BBE0029EF8DF084FFADF022E4CC98
:10095300F875F008EF2FFFEE33FEEC33FCEE9DEC61
:10096300984005FCEE9DFE0FD5F0E9E4CEFD22EDA7
:10097300F8F5F0EE8420D21CFEADF075F008EF2FF1
:10098300FFED33FD4007985006D5F0F222C398FDE2
:050993000FD5F0EA227F
:00000001FF
